{
  "contractName": "DataScanner",
  "abi": [
    {
      "inputs": [],
      "stateMutability": "nonpayable",
      "type": "constructor"
    },
    {
      "anonymous": false,
      "inputs": [
        {
          "indexed": false,
          "internalType": "uint256",
          "name": "id",
          "type": "uint256"
        },
        {
          "indexed": false,
          "internalType": "bool",
          "name": "completed",
          "type": "bool"
        }
      ],
      "name": "ScannedDataUpdated",
      "type": "event"
    },
    {
      "anonymous": false,
      "inputs": [
        {
          "indexed": false,
          "internalType": "uint256",
          "name": "id",
          "type": "uint256"
        },
        {
          "indexed": false,
          "internalType": "string",
          "name": "longitude",
          "type": "string"
        },
        {
          "indexed": false,
          "internalType": "string",
          "name": "latitude",
          "type": "string"
        },
        {
          "indexed": false,
          "internalType": "string",
          "name": "date",
          "type": "string"
        },
        {
          "indexed": false,
          "internalType": "string",
          "name": "idPackage",
          "type": "string"
        },
        {
          "indexed": false,
          "internalType": "bool",
          "name": "completed",
          "type": "bool"
        }
      ],
      "name": "ScannedUpdateData",
      "type": "event"
    },
    {
      "inputs": [],
      "name": "ScannedDataCount",
      "outputs": [
        {
          "internalType": "uint256",
          "name": "",
          "type": "uint256"
        }
      ],
      "stateMutability": "view",
      "type": "function",
      "constant": true
    },
    {
      "inputs": [
        {
          "internalType": "uint256",
          "name": "",
          "type": "uint256"
        }
      ],
      "name": "scannedDatas",
      "outputs": [
        {
          "internalType": "uint256",
          "name": "id",
          "type": "uint256"
        },
        {
          "internalType": "string",
          "name": "longitude",
          "type": "string"
        },
        {
          "internalType": "string",
          "name": "latitude",
          "type": "string"
        },
        {
          "internalType": "string",
          "name": "date",
          "type": "string"
        },
        {
          "internalType": "string",
          "name": "idPackage",
          "type": "string"
        },
        {
          "internalType": "bool",
          "name": "completed",
          "type": "bool"
        }
      ],
      "stateMutability": "view",
      "type": "function",
      "constant": true
    },
    {
      "inputs": [
        {
          "internalType": "string",
          "name": "_longitude",
          "type": "string"
        },
        {
          "internalType": "string",
          "name": "_latitude",
          "type": "string"
        },
        {
          "internalType": "string",
          "name": "_date",
          "type": "string"
        },
        {
          "internalType": "string",
          "name": "_idPackage",
          "type": "string"
        }
      ],
      "name": "updateScannedData",
      "outputs": [],
      "stateMutability": "nonpayable",
      "type": "function"
    }
  ],
  "bytecode": "0x608060405260006001553480156200001657600080fd5b50620000bf6040518060400160405280600a81526020016931392e3236353233343360b01b81525060405180604001604052806009815260200168199b17191a9a1b191960b91b8152506040518060400160405280601381526020017f31363a33373a31352031322f31322f3230323100000000000000000000000000815250604051806040016040528060048152602001630313230360e41b815250620000c560201b60201c565b62000447565b6001805481018082556040805160c08101825282815260208082018981528284018990526060830188905260808301879052600060a08401819052948552600282529290932081518155915180519194929362000128938501929101906200039b565b5060408201518051620001469160028401916020909101906200039b565b5060608201518051620001649160038401916020909101906200039b565b5060808201518051620001829160048401916020909101906200039b565b5060a08201518160050160006101000a81548160ff0219169083151502179055509050507f6c692277706cf19f22db2700276544cb2d72c393500922884ccfb6e46319e1b06001548585858560006040518087815260200180602001806020018060200180602001861515815260200185810385528a818151815260200191508051906020019080838360005b83811015620002295781810151838201526020016200020f565b50505050905090810190601f168015620002575780820380516001836020036101000a031916815260200191505b5085810384528951815289516020918201918b019080838360005b838110156200028c57818101518382015260200162000272565b50505050905090810190601f168015620002ba5780820380516001836020036101000a031916815260200191505b5085810383528851815288516020918201918a019080838360005b83811015620002ef578181015183820152602001620002d5565b50505050905090810190601f1680156200031d5780820380516001836020036101000a031916815260200191505b50858103825287518152875160209182019189019080838360005b838110156200035257818101518382015260200162000338565b50505050905090810190601f168015620003805780820380516001836020036101000a031916815260200191505b509a505050505050505050505060405180910390a150505050565b828054600181600116156101000203166002900490600052602060002090601f016020900481019282620003d357600085556200041e565b82601f10620003ee57805160ff19168380011785556200041e565b828001600101855582156200041e579182015b828111156200041e57825182559160200191906001019062000401565b506200042c92915062000430565b5090565b5b808211156200042c576000815560010162000431565b610a6b80620004576000396000f3fe608060405234801561001057600080fd5b50600436106100415760003560e01c8063101c1c7c14610046578063ae7250011461021d578063baab360514610452575b600080fd5b6100636004803603602081101561005c57600080fd5b503561046c565b6040518087815260200180602001806020018060200180602001861515815260200185810385528a818151815260200191508051906020019080838360005b838110156100ba5781810151838201526020016100a2565b50505050905090810190601f1680156100e75780820380516001836020036101000a031916815260200191505b5085810384528951815289516020918201918b019080838360005b8381101561011a578181015183820152602001610102565b50505050905090810190601f1680156101475780820380516001836020036101000a031916815260200191505b5085810383528851815288516020918201918a019080838360005b8381101561017a578181015183820152602001610162565b50505050905090810190601f1680156101a75780820380516001836020036101000a031916815260200191505b50858103825287518152875160209182019189019080838360005b838110156101da5781810151838201526020016101c2565b50505050905090810190601f1680156102075780820380516001836020036101000a031916815260200191505b509a505050505050505050505060405180910390f35b6104506004803603608081101561023357600080fd5b810190602081018135600160201b81111561024d57600080fd5b82018360208201111561025f57600080fd5b803590602001918460018302840111600160201b8311171561028057600080fd5b91908080601f0160208091040260200160405190810160405280939291908181526020018383808284376000920191909152509295949360208101935035915050600160201b8111156102d257600080fd5b8201836020820111156102e457600080fd5b803590602001918460018302840111600160201b8311171561030557600080fd5b91908080601f0160208091040260200160405190810160405280939291908181526020018383808284376000920191909152509295949360208101935035915050600160201b81111561035757600080fd5b82018360208201111561036957600080fd5b803590602001918460018302840111600160201b8311171561038a57600080fd5b91908080601f0160208091040260200160405190810160405280939291908181526020018383808284376000920191909152509295949360208101935035915050600160201b8111156103dc57600080fd5b8201836020820111156103ee57600080fd5b803590602001918460018302840111600160201b8311171561040f57600080fd5b91908080601f0160208091040260200160405190810160405280939291908181526020018383808284376000920191909152509295506106cc945050505050565b005b61045a61098e565b60408051918252519081900360200190f35b60026020818152600092835260409283902080546001808301805487519281161561010002600019011695909504601f81018590048502820185019096528581529094919390929091908301828280156105075780601f106104dc57610100808354040283529160200191610507565b820191906000526020600020905b8154815290600101906020018083116104ea57829003601f168201915b50505060028085018054604080516020601f60001961010060018716150201909416959095049283018590048502810185019091528181529596959450909250908301828280156105995780601f1061056e57610100808354040283529160200191610599565b820191906000526020600020905b81548152906001019060200180831161057c57829003601f168201915b5050505060038301805460408051602060026001851615610100026000190190941693909304601f81018490048402820184019092528181529495949350908301828280156106295780601f106105fe57610100808354040283529160200191610629565b820191906000526020600020905b81548152906001019060200180831161060c57829003601f168201915b5050505060048301805460408051602060026001851615610100026000190190941693909304601f81018490048402820184019092528181529495949350908301828280156106b95780601f1061068e576101008083540402835291602001916106b9565b820191906000526020600020905b81548152906001019060200180831161069c57829003601f168201915b5050506005909301549192505060ff1686565b6001805481018082556040805160c08101825282815260208082018981528284018990526060830188905260808301879052600060a08401819052948552600282529290932081518155915180519194929361072d93850192910190610994565b5060408201518051610749916002840191602090910190610994565b5060608201518051610765916003840191602090910190610994565b5060808201518051610781916004840191602090910190610994565b5060a08201518160050160006101000a81548160ff0219169083151502179055509050507f6c692277706cf19f22db2700276544cb2d72c393500922884ccfb6e46319e1b06001548585858560006040518087815260200180602001806020018060200180602001861515815260200185810385528a818151815260200191508051906020019080838360005b8381101561082657818101518382015260200161080e565b50505050905090810190601f1680156108535780820380516001836020036101000a031916815260200191505b5085810384528951815289516020918201918b019080838360005b8381101561088657818101518382015260200161086e565b50505050905090810190601f1680156108b35780820380516001836020036101000a031916815260200191505b5085810383528851815288516020918201918a019080838360005b838110156108e65781810151838201526020016108ce565b50505050905090810190601f1680156109135780820380516001836020036101000a031916815260200191505b50858103825287518152875160209182019189019080838360005b8381101561094657818101518382015260200161092e565b50505050905090810190601f1680156109735780820380516001836020036101000a031916815260200191505b509a505050505050505050505060405180910390a150505050565b60015481565b828054600181600116156101000203166002900490600052602060002090601f0160209004810192826109ca5760008555610a10565b82601f106109e357805160ff1916838001178555610a10565b82800160010185558215610a10579182015b82811115610a105782518255916020019190600101906109f5565b50610a1c929150610a20565b5090565b5b80821115610a1c5760008155600101610a2156fea264697066735822122089f75e3af61190fcbaff6a3c88fa303eb0f4bf59ac1fbcc83c7f55467b6b9fc464736f6c63430007060033",
  "immutableReferences": {},
  "source": "// SPDX-License-Identifier: MIT\r\npragma solidity >=0.4.21 <0.8.4;\r\n\r\ncontract DataScanner {\r\n    uint256 storedData;\r\n    uint256 public ScannedDataCount = 0;\r\n\r\n    struct ScannedData {\r\n        uint256 id;\r\n        string longitude;\r\n        string latitude;\r\n        string date;\r\n        string idPackage;\r\n        bool completed;\r\n    }\r\n\r\n    mapping(uint256 => ScannedData) public scannedDatas;\r\n\r\n    event ScannedUpdateData(\r\n        uint256 id,\r\n        string longitude,\r\n        string latitude,\r\n        string date,\r\n        string idPackage,\r\n        bool completed\r\n    );\r\n\r\n    event ScannedDataUpdated(uint256 id, bool completed);\r\n\r\n    constructor() public {\r\n        updateScannedData(\r\n            \"19.2652343\",\r\n            \"36.254622\",\r\n            \"16:37:15 12/12/2021\",\r\n            \"1200\"\r\n        );\r\n    }\r\n\r\n    function updateScannedData(\r\n        string memory _longitude,\r\n        string memory _latitude,\r\n        string memory _date,\r\n        string memory _idPackage\r\n    ) public {\r\n        ScannedDataCount++;\r\n        scannedDatas[ScannedDataCount] = ScannedData(\r\n            ScannedDataCount,\r\n            _longitude,\r\n            _latitude,\r\n            _date,\r\n            _idPackage,\r\n            false\r\n        );\r\n        emit ScannedUpdateData(\r\n            ScannedDataCount,\r\n            _longitude,\r\n            _latitude,\r\n            _date,\r\n            _idPackage,\r\n            false\r\n        );\r\n    }\r\n}\r\n",
  "sourcePath": "E:\\2021_2022_IEEE_TrainingManager_Formation\\Dev_Work\\TrackingAppCSChallenge\\tsyp-cs-app\\TrackingWebBlockchainDapp\\src\\contracts\\DataScanner.sol",
  "compiler": {
    "name": "solc",
    "version": "0.7.6+commit.7338295f.Emscripten.clang"
  },
  "schemaVersion": "3.4.9",
  "updatedAt": "2023-07-20T09:16:31.268Z",
  "networkType": "ethereum",
  "devdoc": {
    "kind": "dev",
    "methods": {},
    "version": 1
  },
  "userdoc": {
    "kind": "user",
    "methods": {},
    "version": 1
  }
}